:020000040800F2
:100000007806002061020008690200086B020008FF
:100010006D0200086F020008710200080000000075
:100020000000000000000000000000007302000853
:10003000750200080000000077020008790200083D
:100040007B0200087B0200087B0200087B0200089C
:100050007B0200087B0200087B0200087B0200088C
:100060007B0200087B0200087B0200087B0200087C
:100070007B0200087B0200087B0200087B0200086C
:100080007B0200087B0200087B02000800000000E1
:100090000000000000000000000000007B020008DB
:1000A0007B0200087B0200087B0200087B0200083C
:1000B0007B0200087B0200087B0200087B0200082C
:1000C0007B0200087B0200087B0200087B0200081C
:1000D0007B0200087B0200087B0200080000000091
:1000E0007B0200087B0200087B0200080000000081
:1000F0000000000000000000000000007B0200087B
:10010000000000007B0200087B0200087B02000860
:1001100000000000000000000000000000000000DF
:100120007B0200087B0200087B0200087B020008BB
:100130007B0200080000000000000000000000003A
:100140000000000000000000000000007B0200082A
:100150007B0200087B0200087B0200087B0200088B
:100160007B0200087B020008000000000000000085
:10017000000000000000000000000000000000007F
:10018000000000007B0200080000000000000000EA
:100190007B02000800F002F800F052F814A696E87E
:1001A000000CB244B344DA4501D100F049F8BAE892
:1001B0000F000FA696E83000A5EB040504EB060738
:1001C000AAEB0704A7F101074FEA15154FEA34140B
:1001D000A4F10104AC4201D300F032F813F0010F96
:1001E00018BFFB1A43F0010300F001F8DBE71847E2
:1001F00090080000B0080000103A24BF78C878C109
:10020000FAD8520724BF30C830C144BF04680C601C
:1002100070470000704700000023002400250026DE
:10022000103A28BF78C1FBD8520728BF30C148BF59
:100230000B6070471FB500F0F3FB1FBD10B510BD7C
:1002400000F07CF81146FFF7F5FF00F06FF900F0C1
:100250009AF803B4FFF7F2FF03BC00F0A1F8000026
:100260000948804709480047FEE7FEE7FEE7FEE74A
:10027000FEE7FEE7FEE7FEE7FEE7FEE70448054986
:10028000054A064B70470000B103000895010008BD
:1002900078000020780600207802002078020020F4
:1002A00040EA010370B59B072ED14FF00136042AB6
:1002B0002AD308C810C99D1B9D43121F15EAC615F5
:1002C00017D0D8B2E1B2401A50EA056110D198B205
:1002D000A1B2401A50EA05410AD123F07F4024F030
:1002E0007F41401A50EA052102D1180EA0EB14609C
:1002F00070BDA342DBD018BA21BA884201D90120CF
:1003000070BD4FF0FF3070BD0AB9002070BD10F80D
:10031000013B11F8014B63B1A3420AD1521E08D030
:1003200010F8013B11F8014B1BB1A34201D1521E41
:10033000EDD1181B70BD704770477047754600F0CF
:100340002BF8AE4605006946534620F00700854667
:1003500018B020B5FFF792FFBDE820404FF000062F
:100360004FF000074FF000084FF0000BAC46ACE830
:10037000C009ACE8C009ACE8C009ACE8C00921F08C
:1003800007018D46704710B50446AFF30080204644
:10039000BDE81040FFF75DBF00487047080000202F
:1003A00001491820ABBEFEE726000200704700009E
:1003B0004EF68851CEF20001086840F470000860E3
:1003C0007047000083B0029000200190FFE7019881
:1003D0000299884213DAFFE700200090FFE70098B7
:1003E00040F2E141884205DCFFE7FFE70098013079
:1003F0000090F4E7FFE7019801300190E7E703B0D0
:100400007047000043F63001C4F20201086840F072
:10041000070008600021C4F20201086845F2555245
:100420001043086040F20041C4F20201086840F045
:100430001500086040F60001C4F20201086840F4AB
:10044000AA50086040F60C02C4F2020210680020B4
:100450001060086840F080400860704780B582B046
:100460008DF807009DF807001421C4F2020108600E
:1004700040F21441C4F202010091086820F0070024
:100480000860086840F0040008600A20FFF79AFF3F
:100490000099086820F00400086002B080BD0000E8
:1004A00080B582B08DF807009DF807001421C4F2D2
:1004B0000201086040F21441C4F202010091086890
:1004C00020F007000860086840F0050008600A2076
:1004D000FFF778FF0099086820F00400086002B078
:1004E00080BD000080B53820FFF7B8FF0C20FFF773
:1004F000B5FF0120FFF7B2FF8020FFF7AFFF80BDFF
:1005000080B582B0019000200090FFE7019800992B
:10051000405C48B1FFE701980099405CFFF7C0FFDD
:10052000009801300090F1E702B080BD80B582B044
:1005300000200190FFF766FFFFF7D4FF40F661202F
:10054000C0F60000FFF7DCFFC520FFF787FFFFE7DD
:1005500000F002F8FCE7000080B584B040F27000C3
:10056000C2F200000068032800F35882FFE740F65B
:100570001401C4F20201086840F0780008600868BD
:1005800020F00800086040F61000C4F20200006885
:10059000C007C0B9FFE740F63A20C0F60000FFF7F9
:1005A000AFFF40F27001C2F200010B6840F2680236
:1005B000C2F200023120D054086801300860C8201F
:1005C000FFF700FF43E040F61000C4F202000068AD
:1005D0008007002818D4FFE740F63A20C0F6000054
:1005E000FFF78EFF40F27001C2F200010B6840F28B
:1005F0006802C2F200023220D0540868013008605C
:10060000C820FFF7DFFE21E040F61000C4F2020030
:1006100000684007002818D4FFE740F63A20C0F6EB
:100620000000FFF76DFF40F27001C2F200010B689D
:1006300040F26802C2F200023320D0540868013050
:100640000860C820FFF7BEFEFFE7FFE7FFE740F6C0
:100650001401C4F20201086840F0780008600868DC
:1006600020F01000086040F61000C4F2020000689C
:10067000C007C0B9FFE740F63A20C0F60000FFF718
:100680003FFF40F27001C2F200010B6840F26802C5
:10069000C2F200023420D054086801300860C8203B
:1006A000FFF790FE43E040F61000C4F2020000683D
:1006B0008007002818D4FFE740F63A20C0F6000073
:1006C000FFF71EFF40F27001C2F200010B6840F21A
:1006D0006802C2F200023520D05408680130086078
:1006E000C820FFF76FFE21E040F61000C4F20200C0
:1006F00000684007002818D4FFE740F63A20C0F60B
:100700000000FFF7FDFE40F27001C2F200010B682D
:1007100040F26802C2F200023620D054086801306C
:100720000860C820FFF74EFEFFE7FFE7FFE740F64F
:100730001401C4F20201086840F0780008600868FB
:1007400020F02000086040F61000C4F202000068AB
:10075000C007C0B9FFE740F63A20C0F60000FFF737
:10076000CFFE40F27001C2F200010B6840F2680255
:10077000C2F200023720D054086801300860C82057
:10078000FFF720FE43E040F61000C4F202000068CC
:100790008007002818D4FFE740F63A20C0F6000092
:1007A000FFF7AEFE40F27001C2F200010B6840F2AA
:1007B0006802C2F200023820D05408680130086094
:1007C000C820FFF7FFFD21E040F61000C4F2020050
:1007D00000684007002818D4FFE740F63A20C0F62A
:1007E0000000FFF78DFE40F27001C2F200010B68BD
:1007F00040F26802C2F200023920D0540868013089
:100800000860C820FFF7DEFDFFE7FFE7FFE740F6DF
:100810001401C4F20201086840F07800086008681A
:1008200020F04000086040F61000C4F202000068AA
:10083000C007C0B9FFE740F63A20C0F60000FFF756
:100840005FFE40F27001C2F200010B6840F26802E4
:10085000C2F200022A20D054086801300860C82083
:10086000FFF7B0FD43E040F61000C4F2020000685C
:100870008007002818D4FFE740F63A20C0F60000B1
:10088000FFF73EFE40F27001C2F200010B6840F239
:100890006802C2F200023020D054086801300860BB
:1008A000C820FFF78FFD21E040F61000C4F20200DF
:1008B00000684007002818D4FFE740F63A20C0F649
:1008C0000000FFF71DFE40F27001C2F200010B684C
:1008D00040F26802C2F200022320D05408680130BE
:1008E0000860C820FFF76EFDFFE7FFE7FFE740F273
:1008F0007000C2F200000068042840F08E80FFE71C
:1009000040F20000C2F2000040F26801C2F20001B1
:100910000422FFF7C5FC014640F27400C2F2000059
:100920000160006890B9FFE78020FFF797FD40F66F
:100930005220C0F60000FFF7E3FD40F61401C4F2B8
:100940000201086840F400400860FFE740F27400CC
:10095000C2F20000006878B3FFE740F26C01C2F217
:10096000000108680130086001200290FFF776FD61
:1009700080200390FFF772FD40F63C20C0F6000097
:10098000FFF7BEFD4FF41670FFF71CFD0298FFF74E
:1009900065FD0398FFF762FD40F67020C0F6000089
:1009A000FFF7AEFD40F27001C2F2000100200860C6
:1009B000C720FFF753FDFFE740F26C00C2F20000D2
:1009C0000068042828DBFFE701200090FFF746FDC0
:1009D00080200190FFF742FD40F64A20C0F600005B
:1009E000FFF78EFD41F28830FFF7ECFC0098FFF72F
:1009F00035FD0198FFF732FD40F67020C0F600008B
:100A0000FFF77EFD40F26C01C2F200010020086099
:100A1000C720FFF723FDFFE7FFE7FFE704B080BD36
:100A2000F1EE100A4FF6FF71C0F2C03120EA01006A
:100A300040F04070E1EE100A70472A0041636365A0
:100A400073732044656E69656400426C6F636B6507
:100A50006400416363657373204772616E746564FB
:100A600000456E7465722050617373776F72640015
:100A700054727920416761696E002533750000006A
:100A8000A00A00080000002004000000F80100088F
:100A9000A40A0008080000207006000018020008E0
:040AA0003132333488
:04000005080002618C
:00000001FF
